:020000040800F2
:10000000C8310020F10200086F1D0008671D0008BC
:100010006B1D0008E5080008A5210008000000008D
:10002000000000000000000000000000390200088D
:10003000750A0008000000008D020008711D00080C
:100040001503000815030008150300081503000830
:100050001503000815030008790A000815030008B5
:100060008D0A0008A10A0008B50A00081503000857
:100070001503000815030008150300081503000800
:1000800015030008150300081503000815030008F0
:1000900015030008150300081503000815030008E0
:1000A00015030008150300081503000815030008D0
:1000B00015030008150300081503000815030008C0
:1000C00015030008150300081503000815030008B0
:1000D0001503000895210008150300081503000802
:1000E0001503000815030008150300081503000890
:1000F0001503000815030008150300081503000880
:10010000150300081503000815030008150300086F
:10011000150300081503000815030008150300085F
:10012000150300081503000815030008150300084F
:10013000150300081503000815030008150300083F
:10014000150300081503000815030008150300082F
:10015000150300081503000815030008150300081F
:10016000150300081503000815030008150300080F
:10017000150300081503000815030008000000001F
:10018000150300081503000800F002F800F044F819
:100190000AA090E8000C82448344AAF10107DA45E2
:1001A00001D100F039F8AFF2090EBAE80F0013F0F0
:1001B000010F18BFFB1A43F00103184764B2000097
:1001C00084B20000103A24BF78C878C1FAD8520728
:1001D00024BF30C830C144BF04680C6070470000C1
:1001E0000023002400250026103A28BF78C1FBD840
:1001F000520728BF30C148BF0B607047642900F028
:100200009381732900F0CD82002070471FB508F05C
:1002100035F91FBD10B510BD00F032FB1146FFF7D8
:10022000F5FF05F04FFC00F050FB03B4FFF7F2FFC1
:1002300003BC01F0D5FF00002A4B19680868B0E83C
:10024000F04F80F30988BFF36F8F4FF0000080F309
:10025000118870470000000006480068006880F3BD
:10026000088862B661B6BFF34F8FBFF36F8F00DFB0
:1002700000BF00BF08ED00E0DFF80C00016841F4AA
:1002800070010160704700BF88ED00E0EFF3098066
:10029000BFF36F8F134B1A681EF0100F08BF20EDCD
:1002A000108A20E9F04F106008B44FF0500080F33E
:1002B0001188BFF34F8FBFF36F8F06F0E9FF4FF048
:1002C000000080F3118808BC19680868B0E8F04F96
:1002D0001EF0100F08BFB0EC108A80F30988BFF33E
:1002E0006F8F704738000020EFF3058070470000E3
:1002F0000C48016841F4700101600B4880470B48CD
:100300000047FEE7FEE7FEE7FEE7FEE7FEE7FEE763
:10031000FEE7FEE7FEE7000005480649044A064BF3
:100320007047000088ED00E0851D00088901000885
:10033000C82D0020C8310020C82D0020704753EA86
:10034000020C00F069802DE9F04B4FF00006002B05
:100350001FBFB3FA83F503FA05F424FA05F65E40ED
:1003600012BF1643B2FA82F502FA05F4C5F1200570
:100370001EBF22FA05FC44EA0C04203556EA044C60
:100380004FEA144418BF641C4FF000084FF00009F6
:10039000904271EB030C39D3002919BFB1FA81F7F0
:1003A00001FA07F6B0FA80F700FA07F6C7F120075E
:1003B0001EBF20FA07FC46EA0C062037B6FBF4FC09
:1003C000A7EB0507103F07F01F0BCBF120060CFA37
:1003D0000BFB2CFA06F644BFB3460026202FA4BF21
:1003E0005E464FF0000B5BEA060C08BF4FF0010BB6
:1003F00019EB0B09ABFB027C48EB0608C01B06FBA4
:1004000002CC0BFB03CC71EB0C01C1E70B4602469F
:1004100041464846BDE8F08B13B54FF000004FF061
:100420000001AFF30080BDE81C4070470FB40449E1
:1004300010B503AA029800F0B9F910BC5DF814FBDE
:10044000180000200FB41CB5074B06AA7B44694670
:100450000090059800F07BF90020694600F08AF9C9
:100460001CBC5DF814FB0000250300002DE9F041E1
:100470000E460446002020622046E168884730B3DB
:10048000252805D0D4E901219047206A401CF2E7D5
:10049000E168204600278847050018D0A5F14100F3
:1004A000192802D820354FF40067324629462046E5
:1004B0002760FFF7A3FE40B1012804D0F61D26F007
:1004C00007060836D8E7361DD6E72846DAE7206A59
:1004D000BDE8F08170B50C460546012A05D02878A4
:1004E000800600D5EA69002302E0012305E05B1CD9
:1004F000934202D2E05C0028F9D1A869E618C01A3C
:10050000A861286A184428622846AFF3008004E0F6
:10051000D5E9012114F8010B9047B442F8D32846DD
:10052000AFF3008070BD00002DE9F04106460024C5
:1005300010687529314616A510D0AFF30080002849
:1005400002DA404213A507E031688A0701D512A5F7
:1005500002E0490704D511A5012401E0AFF30080B2
:1005600000210A2206F1240709E0B0FBF2FCB0FBEF
:10057000F2F302FB1C00303078541846491C002866
:10058000F3D123462A463046BDE8F04100F080B85A
:10059000000000002D0000002B00000020000000E3
:1005A000032A40F2308010F0030C00F0158011F89F
:1005B000013BBCF1020F624498BF11F801CB00F877
:1005C000013B38BF11F8013BA2F1040298BF00F8CB
:1005D00001CB38BF00F8013B11F0030300F0F880B5
:1005E000083AC0F0088051F8043B083A51F804CBAF
:1005F000A0E80810F5E7121D5CBF51F8043B40F875
:10060000043BAFF30080D20724BF11F8013B11F87F
:1006100001CB48BF11F8012B24BF00F8013B00F8C3
:1006200001CB48BF00F8012B704702F0FF0343EAFB
:10063000032242EA024200F0FFB84FF0000200B588
:10064000134694469646203922BFA0E80C50A0E8F5
:100650000C50B1F12001BFF4F7AF090728BFA0E8A3
:100660000C5048BF0CC05DF804EB890028BF40F86F
:10067000042B08BF704748BF20F8022B11F0804FB1
:1006800018BF00F8012B70477047704770477047DC
:100690002DE9F0470D4699469246044600F124089C
:1006A0000168880604D5E06921F01001216000E0AE
:1006B0000120A84201DD471B00E00027A1697A194B
:1006C00002EB0900081AA0612078C00602D4204677
:1006D000AFF30080002608E0D4E901211AF80600F3
:1006E0009047206A401C761C20624E45F4DB20783F
:1006F000C0060AD52046AFF3008006E0D4E9012108
:1007000030209047206A401C2062381EA7F1010764
:10071000F4DC07E0D4E9012118F805009047206ACD
:10072000401C2062281EA5F10105F3DC2046AFF332
:1007300000802078000602D50220BDE8F087012065
:10074000FBE7000001694A1C02610878704700B5A8
:100750008FB0CDE901310021059105497944CDE9FA
:10076000031011466846FFF781FE0FB000BD000080
:10077000E5FFFFFF0A6802F8010B0A60704710B539
:10078000436913B1AFF3008001E0FFF7A3FE01203E
:1007900010BD127800F124010A7000224A70012273
:1007A000EDE711684FF0FF32E9E70000074B70B545
:1007B0000D467B44FFF7CBFF0446284600F05CF86B
:1007C00010B14FF0FF3070BD204670BDCF1B000050
:1007D00010B5203AC0F00B80B1E81850203AA0E8DC
:1007E0001850B1E81850A0E81850BFF4F5AF5FEA10
:1007F000027C24BFB1E81850A0E8185044BF18C9C3
:1008000018C0BDE810405FEA827C24BF51F8043B69
:1008100040F8043B08BF7047D20728BF31F8023BBD
:1008200048BF11F8012B28BF20F8023B48BF00F851
:10083000012B70474FF000020429C0F0128010F025
:10084000030C3FF4FCAECCF1040CBCF1020F18BF5A
:1008500000F8012BA8BF20F8022BA1EB0C01FFF739
:10086000EEBE5FEAC17C24BF00F8012B00F8012B2B
:1008700048BF00F8012B7047007B00F080007047F4
:10088000754600F02BF8AE4605006946534620F049
:100890000700854618B020B5FFF73EFDBDE82040B3
:1008A0004FF000064FF000074FF000084FF0000B2C
:1008B00021F00701AC46ACE8C009ACE8C009ACE8DF
:1008C000C009ACE8C0098D46704710B50446AFF3C7
:1008D00000802046BDE81040FFF7A7BC00487047E5
:1008E000642D002000BFFEE700B585B04FF4007016
:1008F000009000200190022003906946024800F019
:10090000E9F905B000BD00000018024000B585B04F
:100910004FF400700090012001900220039069467E
:10092000024800F0D7F905B000BD000000180240F1
:1009300070B50024FFF7EAFF00224FF400712C4845
:1009400000F0DCFA122006F06DFA0122510228486C
:1009500000F0D4FA142001F09BFCFFF7C5FF14202F
:1009600001F096FC4FF40071214800F0B5FA002820
:100970002BD104E0012001F08BFC601CC4B24FF4C9
:1009800000711B4800F0A8FA08B9642CF2DB0024BF
:1009900004E0012001F07CFC601CC4B24FF4007143
:1009A000134800F099FA012801D1642CF1DB0024EE
:1009B000002505E000F020F80E494855681CC5B236
:1009C000052DF7DB322001F063FC0A480078094965
:1009D000497808440749897808440649C97846187F
:1009E00004480079B04201D1012070BD0020FCE72D
:1009F00000180240290000202DE9F04100250024C4
:100A0000002630E004E0012001F042FC601CC4B28A
:100A10004FF40071164800F05FFA08B9642CF2DB5D
:100A20000024282001F034FC4FF40071104800F03D
:100A300053FA012801D1012700E0002704E001203A
:100A400001F026FC601CC4B24FF40071084800F0AD
:100A500043FA012801D1642CF1DB00246806050E5D
:100A60003D43701CC6B2082ECCDB2846BDE8F081A1
:100A7000001802407047000010B5012000F01CF97A
:100A800001200149086010BD143C014010B504204C
:100A900000F012F904200149086010BD143C014027
:100AA00010B5082000F008F908200149086010BDC1
:100AB000143C014010B5102000F0FEF81020014950
:100AC000086010BD143C014070B504461D4600236B
:100AD000B5F5804F13D154F822300C480340D1E9CA
:100AE000000640EA06108E6840EA06208E8940EA39
:100AF00006408E693043034344F8223003E06FF030
:100B0000704044F82200002070BD00000000F0CFCB
:100B100010B503460022086853F82020124802400E
:100B2000D1E901042043CC6820430C6920434C697F
:100B300020438C692043CC6920430C6A20434C6AD3
:100B400020438C6A2043CC6A2043CC6B20430C6B3F
:100B5000204302438868082801D142F04002086817
:100B600043F82020002010BD8000F0FF30B5034680
:100B70000024501C53F8204004F04044D1E9000503
:100B800040EA05108D6840EA05208D8940EA054558
:100B9000088A401E45EA0055087D801E45EA00602F
:100BA0008D6928430443501C43F82040002030BD89
:100BB00070B50446A56D00F0ADF9064694F8350011
:100BC000022808D08020606500BF002084F834002F
:100BD00000BF012070BD2068006820F01600216869
:100BE00008602068406920F0800021684861206C1E
:100BF00008B9A06C28B12068006820F008002168BE
:100C000008602068006820F00100216808600FE09B
:100C100000F080F9801B05280AD92020606500BFFC
:100C2000002084F8340000BF032084F83500D1E7A9
:100C30002068006800F001000028E9D194F85C10F9
:100C40003F208840A86000BF002084F8340000BF27
:100C5000012084F835000020BCE7014691F83500FA
:100C6000022803D08020486501207047052081F8C4
:100C700035000868006820F001000A681060002054
:100C8000F3E7000010B50446142001F0F5FA102C2B
:100C90000BD11021064800F01FF928B900BF21012F
:100CA000044800F021F900BF00E000BF00BF10BD04
:100CB000001002400014024010B5044604480068C9
:100CC000204020B1024804602046FFF7DBFF10BD42
:100CD000143C0140F8B502460B46002500240020D4
:100CE0000021DEE0012606FA01F51E6806EA050489
:100CF000AC4275D11E7906F00306012E04D01E7990
:100D000006F00306022E13D190684F000326BE4062
:100D1000B0434F00DE68BE4030439060506801260B
:100D20008E40B0431E79C6F300168E4030435060AB
:100D30001E7906F00306032E09D0D0684F00032663
:100D4000BE40B0434F009E68BE403043D0601E7925
:100D500006F00306022E13D1CF0802F1200656F842
:100D600027004E07F70E0F26BE40B0434F07FF0E79
:100D70001E69BE403043CF0802F1200646F8270026
:100D800010684F000326BE40B0431E7906F00306EC
:100D90004F00BE40304310605E6806F08056B6F1EA
:100DA000805F7DD100BF00260096404E366846F435
:100DB00080463E4F3E603E46366806F480460096CA
:100DC00000BF00BF3A4E8F0856F827008E07370F36
:100DD0000F26BE40B043374EB24202D1002624E077
:100DE0005EE0354EB24201D101261EE0334EB242E2
:100DF00001D1022619E0324EB24201D1032614E09D
:100E0000304EB24201D104260FE02F4EB24201D142
:100E100005260AE02D4EB24201D1062605E02C4EF1
:100E2000B24201D1072600E008268F073F0FBE40DF
:100E300030431F4E8F0846F82700264E3068A043E7
:100E40005E6806F48036B6F5803F00D12043214E1F
:100E50003060361D3068A0435E6806F40036B6F593
:100E6000003F00D120431B4E361D3060361D3068D8
:100E7000A0435E6806F48016B6F5801F00D12043BB
:100E8000144E08363060361D3068A0435E6806F4A4
:100E90000016B6F5001F00D120430E4E0C36306010
:100EA000491C1029FFF41EAFF8BD00004438024071
:100EB00008380140000002400004024000080240DF
:100EC000000C0240001002400014024000180240D2
:100ED000001C0240003C0140024613690B400BB16C
:100EE000012000E00020704710B5426921EA0203AA
:100EF00002EA010443EA0443836110BD0AB181613F
:100F000001E00B048361704701480068000C7047E2
:100F1000002004E001480068704700002000002025
:100F2000034800680349097808440149086070478C
:100F3000200000202800002010B50A48006840F476
:100F40000070084908600846006840F48060086046
:100F5000052000F07FF80F2000F006F800F02AF8D6
:100F6000002010BD003C024070B504460E480078D9
:100F70004FF47A71B1FBF0F00C490968B1FBF0F560
:100F8000284600F09BFC08B1012070BD102C07D250
:100F900000222146501E00F01EF80548046001E0C2
:100FA0000120F2E70020F0E72800002000000020E8
:100FB00024000020704701460846002809DB00F0A5
:100FC0001F0301229A4043099B0003F1E023C3F869
:100FD000002100BF70472DE9F05F80460D461646A0
:100FE000002701F0E1F8074639462A46334601F06A
:100FF0000700C0F1070ABAF1040F02D94FF0040A42
:1010000001E0C0F1070AD14600F1040ABAF1070F66
:1010100002D24FF0000A01E0A0F1030AD4464FF0DB
:10102000010A0AFA09FAAAF1010A0AEA020A0AFA04
:101030000CFA4FF0010B0BFA0CFBABF1010B0BEAB6
:10104000030B4AEA0B042146404601F0B5F8BDE81F
:10105000F09F000000BF00F00702064B19684FF632
:10106000FF031940044B0B4343EA0221014B196073
:1010700000BF70470CED00E00000FA0570B50446B3
:101080000D460CB9012070BD5848006800F00700FB
:10109000A84209D255490D700846006800F00700C3
:1010A000A84201D00120EEE7207800F002000228DB
:1010B0001DD1207800F00400042805D14C480068B8
:1010C00040F4E0504A490860207800F00800082801
:1010D00005D14748006840F46040454908604448ED
:1010E000006820F0F000A1680843414908602078BA
:1010F00000F00100A8B36068012807D13C48083817
:101100000068C0F34040B8B90120BCE7606802281D
:1011100002D06068032807D1354808380068C0F35A
:10112000406048B90120AEE7314808380068C0F394
:10113000400008B90120A6E72D48006820F0030010
:10114000616808432A490860FFF7E4FE064609E0A3
:10115000FFF7E0FE801B41F28831884202D903206C
:1011600091E707E02248006800F00C006168B0EBEE
:10117000810FEDD11D48006800F00700A84209D991
:101180001A490D700846006800F00700A84201D017
:10119000012078E7207800F00400042807D11448E3
:1011A000006820F4E050E1680843114908602078A5
:1011B00000F00800082808D10D48006820F46040BD
:1011C000216940EAC1000A49086000F03FF8084977
:1011D0000968C1F30311074A515CC8400649086019
:1011E00006480068FFF7C0FE00204CE7003C0240C4
:1011F00008380240868400080000002024000020F7
:1012000001480068704700000000002000B5FFF7AB
:10121000F7FF04490968C1F38221034A515CC840C1
:1012200000BD0000083802409684000800B5FFF7B2
:10123000E7FF04490968C1F34231034A515CC840E1
:1012400000BD000008380240968400082DE9F047F0
:10125000002400250026A1462548006800F00C0067
:1012600020B1042805D008283AD105E0DFF88490A1
:1012700039E0DFF8849036E01D48001F006800F078
:101280003F041B48001F006800F4800078B11A4832
:101290001749091F0968C1F38811A0FB01700146B5
:1012A000224600233846FFF74AF805460EE011486B
:1012B0000F49091F0968C1F38811A0FB017001469D
:1012C000224600233846FFF73AF805460848001F33
:1012D0000068C0F30140401C4600B5FBF6F902E08F
:1012E000DFF8109000BF00BF4846BDE8F08700005F
:1012F000083802400024F40000127A00F8B50446D1
:101300000CB90120F8BD207800F00100002874D04D
:10131000F948006800F00C0004280DD0F648006879
:1013200000F00C00082813D1F348001F006800F4F7
:101330008000B0F5800F0BD1EF4808380068C0F38B
:101340004040002859D06068002856D10120D9E7D4
:1013500000BF6068B0F5803F08D1E74808380068F2
:1013600040F48030E449083908601EE06068B0F558
:10137000A02F0DD1E0480838006840F48020DE49F5
:10138000083908600846006840F4803008600CE0C6
:10139000D9480838006820F48030D74908390860F7
:1013A0000846006820F48020086000BF606890B1A3
:1013B000FFF7B0FD054606E0FFF7ACFD401B6428D3
:1013C00001D903209EE7CC4808380068C0F34040AC
:1013D0000028F1D011E0FFF79DFD054606E0FFF77C
:1013E00099FD401B642801D903208BE7C2480838C7
:1013F0000068C0F340400028F1D1207800F00200DE
:1014000002285FD1BC48006800F00C0058B1BA480F
:10141000006800F00C0008281CD1B748001F0068C5
:1014200000F48000B0B9B44808380068C0F3400048
:1014300020B1E068012801D0012063E7AE480838F8
:10144000006820F0F800216940EAC100AA49083983
:10145000086037E0E06800B30120A8490860FFF7A2
:1014600059FD054606E0FFF755FD401B022801D94E
:10147000032047E7A04808380068C0F34000002870
:10148000F1D09D480838006820F0F800216940EA52
:10149000C10099490839086014E0002097490860A4
:1014A000FFF738FD054606E0FFF734FD401B022834
:1014B00001D9032026E7904808380068C0F34000AF
:1014C0000028F1D1207800F0080008282CD16069AC
:1014D000A8B101208A490860FFF71CFD054606E017
:1014E000FFF718FD401B022801D903200AE78248B4
:1014F0006C300068C0F340000028F1D014E00020F8
:101500007F490860FFF706FD054606E0FFF702FD8C
:10151000401B022801D90320F4E677486C300068AC
:10152000C0F340000028F1D1207800F00400042826
:1015300070D1002770483830006800F0805090B9B2
:1015400000BF002000906C483830006840F08050A8
:101550006949383108600846006800F08050009002
:1015600000BF00BF01276748006800F48070B0B971
:101570006448006840F4807062490860FFF7CAFC64
:10158000054606E0FFF7C6FC401B022801D90320F0
:10159000B8E65C48006800F480700028F2D000BF14
:1015A000A068012808D154486830006840F0010064
:1015B0005149683108601DE0A06805280DD14E48EA
:1015C0006830006840F004004B4968310860084604
:1015D000006840F0010008600CE04748683000688F
:1015E00020F001004449683108600846006820F096
:1015F0000400086000BFA068A8B1FFF78BFC054697
:1016000009E0FFF787FC401B41F28831884202D98C
:10161000032077E626E0384868300068C0F34000D1
:101620000028EED013E0FFF775FC054608E0FFF751
:1016300071FC401B41F28831884201D9032061E6E8
:101640002D4868300068C0F340000028EFD1012F1A
:1016500007D129483830006820F0805026493831B9
:10166000086000BFA069002845D02348006800F04A
:101670000C0008285DD0A069022845D100201F4930
:101680000866FFF747FC054606E0FFF743FC401BF2
:10169000022801D9032035E6174808380068C0F34E
:1016A00040600028F1D1D4E907010843616A40EAAB
:1016B00081110122A06AC2EB500041EA00412C20B6
:1016C000005D41EA00600C49091F086001200B49D8
:1016D0000866FFF71FFC054606E0FFF71BFC401BF2
:1016E000022801D903200DE6034808380068C0F33A
:1016F00040600028F1D049E008380240000047422D
:10170000800E474200700040002021490866FFF724
:1017100001FC054606E0FFF7FDFB401B022801D94E
:101720000320EFE51B480068C0F340600028F2D1B9
:101730002CE0A069012800D1E4E51648001D0668E8
:10174000A069012820D006F48001E06981421BD104
:1017500006F03F01206A814216D147F6C070304042
:10176000616AB0EB811F0FD106F440310122A06AFB
:10177000C2EB5000B1EB004F06D106F070612C2097
:10178000005DB1EB006F01D00120BBE50020B9E5A1
:10179000000047420038024070B504460E46154628
:1017A0000CB9012070BD94F8490028B9002084F8D4
:1017B0004800204600F01CF804F108012068FFF7FB
:1017C000A7F93146A2682068FFF7D0F92946236BB4
:1017D000D4E90102FFF778F9A168206850F82100E8
:1017E00040F00100A268216841F822000020D9E7FA
:1017F00010B586B0044600BF002000902248006863
:1018000040F00100204908600846006800F001002F
:10181000009000BF00BF00BF002000901A480838A9
:10182000006840F008001849083908600846006858
:1018300000F00800009000BF00BF00BF0020009033
:101840000846006840F0100008600846006800F094
:101850001000009000BF00BF4CF203700190022006
:10186000029001200390022004900C20059001A911
:101870000648FFF72FFA4FF68070019001A904483F
:10188000FFF728FA06B010BD38380240000C0240BD
:1018900000100240042808D14FF0E021096941F00E
:1018A00004014FF0E022116107E04FF0E0210969E7
:1018B00021F004014FF0E0221161704770B5044639
:1018C0002546681EB0F1807F01D301200FE0681E1D
:1018D0004FF0E02148610F214FF0FF3000F06CFC29
:1018E00000204FF0E021886107200861002070BDD2
:1018F000704770472DE9F84F044620680568206856
:10190000C668206847694FF00009CA4605F00F090C
:10191000B9F1000F0AD105F0200038B106F020001F
:1019200020B1204600F06DFABDE8F88FB9F1000F44
:1019300072D007F0010018B906F4907000286BD03F
:1019400005F0010030B106F4807018B1206C40F051
:101950000100206405F0040030B107F0010018B167
:10196000206C40F00200206405F0020030B107F066
:10197000010018B1206C40F00400206405F008005C
:1019800048B106F0200010B907F0010018B1206C32
:1019900040F008002064206C70B305F0200028B1EE
:1019A00006F0200010B1204600F02BFA20684069B4
:1019B000C0F3801A206C00F0080010B9BAF1000FD3
:1019C00023D0204600F0F2F92068406900F0400082
:1019D000402816D12068406920F040002168486105
:1019E000A06B50B15648A16B0865A06BFFF735F9A5
:1019F00010B1A06B016D88470CE02046FFF779FF1E
:101A000008E02046FFF775FF04E02046FFF771FF6E
:101A10000020206488E7FFE7206B012879D105F0DA
:101A20001000002875D006F01000002871D000BF0B
:101A300000200090206800680090206840680090B6
:101A400000BF00BF2068406900F04000402839D145
:101A5000A06B006840681FFA80F8B8F1000F30D022
:101A6000A08D40452DDDA4F82E80A06BC069B0F597
:101A7000807F1FD02068C06820F480702168C86013
:101A80002068406920F001002168486120684069B1
:101A900020F0400021684861202084F83E000020AA
:101AA00020632068C06820F010002168C860A06B27
:101AB000FFF77EF8A08DE28D801A81B22046FFF7F5
:101AC00017FF31E7A08DE18D401A1FFA80F8E08DF5
:101AD000E8B1B8F1000F1AD02068C06820F4907007
:101AE0002168C8602068406920F0010021684861D1
:101AF000202084F83E00002020632068C06820F089
:101B000010002168C86041462046FFF7F1FE0BE750
:101B1000FFE705F0800030B106F0800018B12046E4
:101B200000F007FB00E705F0400030B106F0400090
:101B300018B1204600F055F9F6E600BFF4E60000C3
:101B4000991D000810B504460CB9012010BDA0690C
:101B500000B100E000BF94F83D0028B9002084F8EF
:101B60003C00204600F028F8242084F83D0020683E
:101B7000C06820F400502168C860204600F0A0F939
:101B80002068006920F4904021680861206840695D
:101B900020F02A00216848612068C06840F40050A5
:101BA0002168C86000202064202084F83D0084F86B
:101BB0003E000020CAE7000010B586B004462E495A
:101BC0002068884255D100BF00BF002000902B48FC
:101BD000006840F01000294908600846006800F0DD
:101BE0001000009000BF00BF00BF00BF00BF00207A
:101BF000009022481438006840F001001F49143951
:101C000008600846006800F00100009000BF00BFB7
:101C100000BF00BF00BF002000900846006840F0F1
:101C2000010008600846006800F00100009000BF55
:101C300000BF00BF481501900220029001200390D0
:101C4000022004900720059001A90D48FFF742F8F3
:101C50004FF4806001900720059001A90848FFF724
:101C600039F82520FFF7A7F9032211462520FFF7B1
:101C7000B2F906B010BD0000001001404438024027
:101C80000000024070B504460D46164694F83E002A
:101C9000202816D105B10EB9012070BD00BF94F8FF
:101CA0003C00012801D10220F7E7012084F83C0024
:101CB00000BF0020206332462946204600F016FA75
:101CC000EBE70220E9E7000010B504462049206850
:101CD00088423BD11F48008800F4004088BB1D4863
:101CE000008800F4804070B11B4800780A2803D0B7
:101CF00000201849088024E01648008840F400407D
:101D0000144908801DE0144800780D2806D11148B8
:101D1000008840F480400F49088012E00E480078A7
:101D20000C490988C1F30D010C4A50540948008838
:101D3000401C0849088008460088C72801DD0020AB
:101D40000880012204490648FFF79CFF10BD0000EF
:101D5000001001401C0000201E000020AC000020EC
:101D600074010020704700BFFEE700BFFEE7704728
:101D700010B5FFF7D5F805F061FF012801D005F097
:101D800099FB10BD0348006840F4700001490860E9
:101D90007047000088ED00E070B50546AC6B002090
:101DA000E085E0842046FFF7A4FD70BD0168C968A6
:101DB00021F490710268D1600168496921F0010144
:101DC00002685161016B012905D10168C96821F0E0
:101DD00010010268D160202180F83E1000210163CB
:101DE000704710B504462068C06820F040002168A4
:101DF000C860202084F83D002046FFF7B3FF002094
:101E000010BD70B5044694F83E00222856D1A06853
:101E1000B0F5805F0CD1206950B90025A66A206812
:101E20004068C0F308003080A06A801CA06215E002
:101E3000A56A0026A068B0F5805F03D0A06828B925
:101E4000206918B920684068287004E0206840685C
:101E500000F07F002870A06A401CA062E08D401E48
:101E600080B2E08540BB2068C06820F02000216877
:101E7000C8602068C06820F480702168C86020684D
:101E8000406920F0010021684861202084F83E006C
:101E9000206B01280AD12068C06820F0100021685A
:101EA000C860A18D2046FFF723FD02E02046FFF722
:101EB0000BFF0020206370BD0020FCE70220FAE742
:101EC0002DE9F84F04462068006920F44050E1688D
:101ED0000843216808612169A068084361690843D3
:101EE000E169084300902068C06849F20C618843AA
:101EF000009908432168C8602068406920F4407058
:101F0000A16908432168486176492068884203D066
:101F100075492068884203D1FFF788F9814602E0BD
:101F2000FFF774F98146E069B0F5004F6CD10220EB
:101F30006168A0FB015003461920A9FB007001460F
:101F40002A463846FEF7FBF96421B0FBF1F04FEA70
:101F5000001A02206168A0FB01510B461920A9FB61
:101F600000712A463846FEF7EAF983460220616886
:101F7000A0FB015003461920A9FB00712A463846F0
:101F8000FEF7DDF96421B0FBF1F000EBC00101EBDD
:101F90000010ABEB8000322101EBC0006421B0FBEC
:101FA000F1F000F0F8000AEB400A02206168A0FBA3
:101FB000015003461920A9FB007001462A46384605
:101FC000FEF7BDF9834602206168A0FB015003467D
:101FD0001920A9FB00712A463846FEF7B0F96421A2
:101FE000B0FBF1F000EBC00101EB0010ABEB8000A7
:101FF000322101EBC0006421B0FBF1F000F00700DA
:102000005044216888606AE004206168A0FB0150A8
:1020100003461920A9FB007001462A463846FEF700
:102020008EF9824604206168A0FB01500346192006
:10203000A9FB007001462A463846FEF780F9642164
:10204000B0FBF1F000EBC00101EB0010AAEB800047
:10205000322101EB00106421B0FBF1F000F0F00A36
:1020600004206168A0FB017003461920A9FB005100
:102070003A462846FEF763F96421B0FBF1F00AEB1B
:10208000001A04206168A0FB01510B461920A9FB2E
:1020900000712A463846FEF752F9834604206168EB
:1020A000A0FB015003461920A9FB007001462A46F7
:1020B0003846FEF744F96421B0FBF1F000EBC001B3
:1020C00001EB0010ABEB8000322101EB001064212A
:1020D000B0FBF1F000F00F00504421688860BDE8CB
:1020E000F88F0000001001400014014010B50346B5
:1020F00099629A85DA8500201864222083F83E00D0
:1021000000BF002083F83C0000BF1868C06840F49E
:1021100080701C68E0601868406940F001001C682D
:1021200060611868C06840F020001C68E060002012
:1021300010BD014691F83D00212828D18868B0F5EE
:10214000805F0BD1086948B90A6A1088C0F308009B
:102150000B685860086A801C086205E00B6A581C0E
:10216000086218780B685860C88C401E80B2C8841A
:1021700058B90868C06820F080000B68D86008680B
:10218000C06840F040000B68D86000207047022013
:10219000FCE7000010B50248FFF7ACFB10BD0000E3
:1021A0007401002000BFFEE702480068C0F302206F
:1021B000704700000CED00E010B5002804DB0A07B2
:1021C000130E054A135406E00A07140E034A00F0E2
:1021D0000F031B1FD45410BD00E400E018ED00E015
:1021E00000BF704700B587B000BF00BF002001905E
:1021F0001148006840F020000F4908600846006858
:1022000000F02000019000BF00BF00BF88150290C1
:102210000120039004900220059002A90748FEF7D0
:1022200059FD00BF00224FF480710448FEF766FE9E
:1022300000BF07B000BD000030380240001402406B
:1022400070B504460420FFF725FB0A4804602546C4
:102250004FF47A7045434FF0E020006940F00200EF
:102260004FF0E021086108464561006940F0010037
:10227000086170BD1400002030B50446002504E05C
:102280004FF47A7000F004F86D1CA542F8D330BD0D
:1022900070B5034600224FF0E02675690D4E366892
:1022A00003FB06F44FF0E026B16910E04FF0E026A2
:1022B000B06988420BD0884202D20E1A324402E042
:1022C0002E1A0E4432440146A24200D300E0EDE74C
:1022D00000BF70BD1400002000B585B000F078F894
:1022E0001020009023480190012002906946224866
:1022F000FEF7F0FC082000901E480190012002909B
:1023000069461D48FEF7E6FC04200090194801903C
:102310000120029069461848FEF7DCFC012000907D
:10232000164801900220029069461548FEF7D2FC3B
:10233000022200210A20FEF74EFE0A20FEF73BFE95
:10234000022201210920FEF746FE0920FEF733FE96
:10235000022211460820FEF73EFE0820FEF72BFE63
:10236000022203210620FEF736FE0620FEF723FE9A
:1023700005B000BD00002110001002400000111047
:102380000000024000BF054A126802F04002002A25
:10239000F9D0C2B2014B5A607047000000100140F2
:1023A0001CB50648012100238022CDE9001004A1BC
:1023B000064805F013FC04F003FF1CBD04000020D8
:1023C00073746172745F7461736B00001D68000840
:1023D00000B587B000BF00BF0020019038480068FA
:1023E00040F01000364908600846006800F0100010
:1023F000019000BF00BF00BF00BF00BF00200190E0
:102400000846006840F0100008600846006800F0C8
:102410001000019000BF00BF00BF00BF00BF002040
:1024200001900846006840F0100008600846006807
:1024300000F01000019000BF00BF00BF00BF00BF50
:10244000002001900846006840F00100086008463E
:10245000006800F00100019000BF00BF00BF102025
:10246000029000200390012004900220059002A910
:102470001448FEF72FFC0820029000200390012052
:1024800004900220059002A90E48FEF723FC0420C8
:10249000029000200390012004900220059002A9E0
:1024A0000848FEF717FC012002900020039002204C
:1024B0000490059002A90448FEF70CFC07B000BD8B
:1024C00030380240001002400000024070B504465F
:1024D000002609480588408845430021084603F046
:1024E000E3F803F08FFA00BF02E004480480761C92
:1024F000AE42FAD370BD0000080200208000006CDC
:1025000010B5044658488471002C58D1F020564923
:1025100008804FF4A07048800846808845F210512A
:10252000884210D14FF430504F4908814FF4285061
:1025300048814FF42C5088814FF4F07008804FF49C
:10254000487048801AE04848808841F66311884204
:102550000DD12C20444908812B2048812A208881D4
:102560004FF4F07008804FF44870488006E02C204B
:102570003D4908812A2048812B2088813A4880885B
:1025800045F21031884205D03748808847F296716D
:10259000884206D14FF4A070334908804FF4F070A0
:1025A00048803148808849F60601884258D14FF466
:1025B000F0702D4908804FF44870488050E04FF487
:1025C000A07029490880F02048800846808845F29C
:1025D0001051884210D14FF43050234908814FF4F4
:1025E000285048814FF42C5088814FF4487008805F
:1025F0004FF4F070488020E01B48808841F663115A
:10260000884205D01848808849F6060188420DD1D5
:102610002C20154908812A2048812B2088814FF4DD
:10262000487008804FF4F070488006E02C200E4976
:1026300008812A2048812B2088810B48808845F218
:102640001031884205D00848808847F29671884248
:1026500006D14FF4F070044908804FF4A070488010
:10266000002002F003FF10BD0802002070B50546EF
:102670000E4614463146284603F016F803F0C2F918
:1026800001490C8070BD00008000006C10B5CF20A7
:1026900003F0ACF9002003F09DF9C12003F09AF992
:1026A000302003F097F9ED2003F0A0F9642003F047
:1026B00091F9032003F08EF9122003F08BF98120A9
:1026C00003F088F9E82003F091F9852003F082F9FE
:1026D000102003F07FF97A2003F07CF9CB2003F07F
:1026E00085F9392003F076F92C2003F073F90020E6
:1026F00003F070F9342003F06DF9022003F06AF959
:10270000F72003F073F9202003F064F9EA2003F0C6
:102710006DF9002003F05EF9002003F05BF9C020A2
:1027200003F064F91B2003F055F9C12003F05EF9B2
:10273000012003F04FF9C52003F058F9302003F0D1
:1027400049F9302003F046F9C72003F04FF9B720CC
:1027500003F040F9362003F049F9482003F03AF934
:102760003A2003F043F9552003F034F9B12003F087
:102770003DF9002003F02EF91A2003F02BF9B620C2
:1027800003F034F90A2003F025F9A22003F022F91E
:10279000F22003F02BF9002003F01CF9262003F0AF
:1027A00025F9012003F016F9E02003F01FF90F20AE
:1027B00003F010F92A2003F00DF9282003F00AF99C
:1027C000082003F007F90E2003F004F9082003F0B5
:1027D00001F9542003F0FEF8A92003F0FBF8432090
:1027E00003F0F8F80A2003F0F5F80F2003F0F2F8F0
:1027F000002003F0EFF8002003F0ECF8002003F0D5
:10280000E9F8002003F0E6F8E12003F0EFF80020FB
:1028100003F0E0F8152003F0DDF8172003F0DAF8F4
:10282000072003F0D7F8112003F0D4F8062003F0B6
:10283000D1F82B2003F0CEF8562003F0CBF83C2043
:1028400003F0C8F8052003F0C5F8102003F0C2F823
:102850000F2003F0BFF83F2003F0BCF83F2003F047
:10286000B9F80F2003F0B6F82B2003F0BFF80020D2
:1028700003F0B0F8002003F0ADF8012003F0AAF84F
:102880003F2003F0A7F82A2003F0B0F8002003F05F
:10289000A1F8002003F09EF8002003F09BF8EF2041
:1028A00003F098F8112003F0A1F87820FFF7E4FC7A
:1028B000292003F09BF810BD10B5FF2003F096F817
:1028C000FF2003F087F8982003F084F8062003F037
:1028D00081F8BC2003F08AF8012003F07BF80F2078
:1028E00003F078F8612003F075F8FF2003F072F828
:1028F000012003F06FF8012003F06CF80B2003F0C7
:1029000069F8102003F066F8372003F063F86320BD
:1029100003F060F8FF2003F05DF8FF2003F05AF8A1
:10292000012003F057F8012003F054F8002003F0D1
:1029300051F8002003F04EF8FF2003F04BF852202E
:1029400003F048F8012003F045F8002003F042F8B6
:10295000402003F03FF8BD2003F048F8012003F0C9
:1029600039F8232003F036F8452003F033F86720C8
:1029700003F030F8012003F02DF8232003F02AF8AB
:10298000452003F027F8672003F024F8BE2003F069
:102990002DF8002003F01EF8012003F01BF8AB20F7
:1029A00003F018F8602003F015F8222003F012F865
:1029B000222003F00FF8222003F00CF8222003F06D
:1029C00009F8222003F006F8C72003F00FF836209C
:1029D00003F000F8ED2003F009F87F2002F0FAFF81
:1029E0000F2002F0F7FFC02003F000F80F2002F0E4
:1029F000F1FF0B2002F0EEFF0A2002F0EBFFFC20BB
:102A000002F0F4FF082002F0E5FFDF2002F0EEFF05
:102A1000002002F0DFFF002002F0DCFF002002F0C7
:102A2000D9FF002002F0D6FF002002F0D3FF2020C3
:102A300002F0D0FFF32002F0D9FF742002F0CAFFA9
:102A4000B42002F0D3FF002002F0C4FF002002F007
:102A5000C1FF002002F0BEFFF72002F0C7FF822076
:102A600002F0B8FFB12002F0C1FF002002F0B2FF77
:102A7000132002F0AFFF132002F0ACFFF22002F0AF
:102A8000B5FF802002F0A6FF042002F0A3FF402043
:102A900002F0A0FF282002F09DFFC12002F0A6FF57
:102AA000172002F097FF882002F094FF882002F0A0
:102AB00091FF202002F08EFFE02002F097FF00201F
:102AC00002F088FF0A2002F085FF122002F082FF48
:102AD000102002F07FFF0E2002F07CFF202002F089
:102AE00079FFCC2002F076FF072002F073FF06206A
:102AF00002F070FF0B2002F06DFF0E2002F06AFF63
:102B00000F2002F067FF0D2002F064FF152002F095
:102B100061FF102002F05EFF002002F05BFFE12069
:102B200002F064FF002002F055FF0B2002F052FF7C
:102B3000132002F04FFF0D2002F04CFF0E2002F098
:102B400049FF1B2002F046FF712002F043FF0620E0
:102B500002F040FF062002F03DFF0A2002F03AFF9B
:102B60000F2002F037FF0E2002F034FF0F2002F09A
:102B700031FF152002F02EFF0C2002F02BFF002069
:102B800002F028FF2A2002F031FF002002F022FF8D
:102B9000002002F01FFF012002F01CFFDF2002F0E6
:102BA00019FF2B2002F022FF002002F013FF00206B
:102BB00002F010FF032002F00DFF1F2002F00AFFB9
:102BC0003A2002F013FF552002F004FF362002F0F5
:102BD0000DFF002002F0FEFE112002F007FF78201A
:102BE000FFF74AFB292002F001FF1420FFF744FB06
:102BF0002C2002F0FBFE10BD10B5ED2002F0F6FE19
:102C0000012002F0E7FEFE2002F0E4FEEE2002F0DA
:102C1000EDFEDE2002F0DEFE212002F0DBFEF120E0
:102C200002F0E4FE012002F0D5FEDF2002F0DEFE1D
:102C3000102002F0CFFEC42002F0D8FE8F2002F058
:102C4000C9FEC62002F0D2FE002002F0C3FEE22040
:102C500002F0C0FEE22002F0BDFEE22002F0BAFE69
:102C6000BF2002F0C3FEAA2002F0B4FEB02002F0A2
:102C7000BDFE0D2002F0AEFE002002F0ABFE0D20E6
:102C800002F0A8FE002002F0A5FE112002F0A2FE34
:102C9000002002F09FFE192002F09CFE002002F0AE
:102CA00099FE212002F096FE002002F093FE2D20D6
:102CB00002F090FE002002F08DFE3D2002F08AFE20
:102CC000002002F087FE5D2002F084FE002002F06A
:102CD00081FE5D2002F07EFE002002F07BFEB1202E
:102CE00002F084FE802002F075FE002002F072FEE9
:102CF0008B2002F06FFE002002F06CFE962002F0A6
:102D000069FE002002F066FEB22002F06FFE002095
:102D100002F060FE002002F05DFE022002F05AFE8A
:102D2000002002F057FE032002F054FE002002F0C3
:102D300051FEB32002F05AFE002002F04BFE0020AC
:102D400002F048FE002002F045FE002002F042FEA4
:102D5000002002F03FFE002002F03CFE002002F0C6
:102D600039FE002002F036FE002002F033FE002083
:102D700002F030FE002002F02DFE002002F02AFEBC
:102D8000002002F027FE002002F024FE002002F0C6
:102D900021FE002002F01EFE002002F01BFE00209B
:102DA00002F018FE002002F015FE002002F012FED4
:102DB000002002F00FFE002002F00CFE002002F0C6
:102DC00009FE002002F006FEB42002F00FFE8B2068
:102DD00002F000FE002002F0FDFD962002F0FAFD58
:102DE000002002F0F7FDA12002F0F4FD002002F027
:102DF000F1FDB52002F0FAFD022002F0EBFD00200B
:102E000002F0E8FD032002F0E5FD002002F0E2FD03
:102E1000042002F0DFFD002002F0DCFDB62002F00D
:102E2000E5FD002002F0D6FD002002F0D3FDB72022
:102E300002F0DCFD002002F0CDFD002002F0CAFD12
:102E40003F2002F0C7FD002002F0C4FD5E2002F02A
:102E5000C1FD002002F0BEFD642002F0BBFD002099
:102E600002F0B8FD8C2002F0B5FD002002F0B2FDAA
:102E7000AC2002F0AFFD002002F0ACFDDC2002F03F
:102E8000A9FD002002F0A6FD702002F0A3FD0020A5
:102E900002F0A0FD902002F09DFD002002F09AFDBE
:102EA000EB2002F097FD002002F094FDDC2002F000
:102EB00091FD002002F08EFDB82002F097FD002069
:102EC00002F088FD002002F085FD002002F082FD66
:102ED000002002F07FFD002002F07CFD002002F0C7
:102EE00079FD002002F076FD002002F073FDBA208B
:102EF00002F07CFD242002F06DFD002002F06AFD4E
:102F0000002002F067FD002002F064FDC12002F005
:102F10006DFD202002F05EFD002002F05BFD5420DC
:102F200002F058FD002002F055FDFF2002F052FD96
:102F3000002002F04FFDC22002F058FD0A2002F0EE
:102F400049FD002002F046FD042002F043FD002070
:102F500002F040FDC32002F049FD3C2002F03AFDA2
:102F6000002002F037FD3A2002F034FD002002F08C
:102F700031FD392002F02EFD002002F02BFD37201C
:102F800002F028FD002002F025FD3C2002F022FD89
:102F9000002002F01FFD362002F01CFD002002F090
:102FA00019FD322002F016FD002002F013FD2F2043
:102FB00002F010FD002002F00DFD2C2002F00AFDB1
:102FC000002002F007FD292002F004FD002002F09D
:102FD00001FD262002F0FEFC002002F0FBFC242074
:102FE00002F0F8FC002002F0F5FC242002F0F2FCD4
:102FF000002002F0EFFC232002F0ECFC002002F0A5
:10300000E9FC3C2002F0E6FC002002F0E3FC362064
:1030100002F0E0FC002002F0DDFC322002F0DAFCDD
:10302000002002F0D7FC2F2002F0D4FC002002F098
:10303000D1FC2C2002F0CEFC002002F0CBFC292099
:1030400002F0C8FC002002F0C5FC262002F0C2FC01
:10305000002002F0BFFC242002F0BCFC002002F0A3
:10306000B9FC242002F0B6FC002002F0B3FC2320BF
:1030700002F0B0FC002002F0ADFCC42002F0B6FC6F
:10308000622002F0A7FC002002F0A4FC052002F060
:10309000A1FC002002F09EFC842002F09BFC00209A
:1030A00002F098FCF02002F095FC002002F092FC67
:1030B000182002F08FFC002002F08CFCA42002F00B
:1030C00089FC002002F086FC182002F083FC00201E
:1030D00002F080FC502002F07DFC002002F07AFC1F
:1030E0000C2002F077FC002002F074FC172002F0A4
:1030F00071FC002002F06EFC952002F06BFC0020B9
:1031000002F068FCF32002F065FC002002F062FC93
:10311000E62002F05FFC002002F05CFCC52002F01B
:1031200065FC322002F056FC002002F053FC4420E3
:1031300002F050FC002002F04DFC652002F04AFC39
:10314000002002F047FC762002F044FC002002F050
:1031500041FC882002F03EFC002002F03BFCC6202F
:1031600002F044FC202002F035FC002002F032FC8A
:10317000172002F02FFC002002F02CFC012002F0AE
:1031800029FC002002F026FCC72002F02FFC0020C2
:1031900002F020FC002002F01DFC002002F01AFCCE
:1031A000002002F017FCC82002F020FC002002F0F2
:1031B00011FC002002F00EFC002002F00BFC0020AD
:1031C00002F008FCC92002F011FC002002F002FC11
:1031D000002002F0FFFB002002F0FCFB002002F0C8
:1031E000F9FB002002F0F6FB002002F0F3FB0020C8
:1031F00002F0F0FB002002F0EDFB002002F0EAFB01
:10320000002002F0E7FB002002F0E4FB002002F0C7
:10321000E1FB002002F0DEFB002002F0DBFB0020DF
:1032200002F0D8FB002002F0D5FBE02002F0DEFB2C
:10323000162002F0CFFB002002F0CCFB1C2002F095
:10324000C9FB002002F0C6FB212002F0C3FB0020D6
:1032500002F0C0FB362002F0BDFB002002F0BAFBFA
:10326000462002F0B7FB002002F0B4FB522002F02F
:10327000B1FB002002F0AEFB642002F0ABFB0020AB
:1032800002F0A8FB7A2002F0A5FB002002F0A2FBCE
:103290008B2002F09FFB002002F09CFB992002F0A3
:1032A00099FB002002F096FBA82002F093FB00207F
:1032B00002F090FBB92002F08DFB002002F08AFBA7
:1032C000C42002F087FB002002F084FBCA2002F039
:1032D00081FB002002F07EFBD22002F07BFB00206D
:1032E00002F078FBD92002F075FB002002F072FB9F
:1032F000E02002F06FFB002002F06CFBF32002F0F4
:1033000069FB002002F066FBE12002F06FFB162053
:1033100002F060FB002002F05DFB1C2002F05AFB73
:10332000002002F057FB222002F054FB002002F0A4
:1033300051FB362002F04EFB002002F04BFB4520F3
:1033400002F048FB002002F045FB522002F042FB55
:10335000002002F03FFB642002F03CFB002002F062
:1033600039FB7A2002F036FB002002F033FB8B2081
:1033700002F030FB002002F02DFB992002F02AFB26
:10338000002002F027FBA82002F024FB002002F01E
:1033900021FBB92002F01EFB002002F01BFBC42021
:1033A00002F018FB002002F015FBCA2002F012FB0D
:1033B000002002F00FFBD22002F00CFB002002F0F4
:1033C00009FBD82002F006FB002002F003FBE020FE
:1033D00002F000FB002002F0FDFAF32002F0FAFAFE
:1033E000002002F0F7FAE22002F000FB052002F0D4
:1033F000F1FA002002F0EEFA0B2002F0EBFA0020C6
:1034000002F0E8FA1B2002F0E5FA002002F0E2FAEE
:10341000342002F0DFFA002002F0DCFA442002F04F
:10342000D9FA002002F0D6FA4F2002F0D3FA002099
:1034300002F0D0FA612002F0CDFA002002F0CAFAC0
:10344000792002F0C7FA002002F0C4FA882002F0C6
:10345000C1FA002002F0BEFA972002F0BBFA002069
:1034600002F0B8FAA62002F0B5FA002002F0B2FA93
:10347000B72002F0AFFA002002F0ACFAC22002F04E
:10348000A9FA002002F0A6FAC72002F0A3FA002051
:1034900002F0A0FAD12002F09DFA002002F09AFA80
:1034A000D62002F097FA002002F094FADD2002F014
:1034B00091FA002002F08EFAF32002F08BFA00203D
:1034C00002F088FAE32002F091FA052002F082FA75
:1034D000002002F07FFA0A2002F07CFA002002F0BD
:1034E00079FA1C2002F076FA002002F073FA3320F9
:1034F00002F070FA002002F06DFA442002F06AFA3D
:10350000002002F067FA502002F064FA002002F076
:1035100061FA622002F05EFA002002F05BFA782085
:1035200002F058FA002002F055FA882002F052FA10
:10353000002002F04FFA972002F04CFA002002F02F
:1035400049FAA62002F046FA002002F043FAB7201A
:1035500002F040FA002002F03DFAC22002F03AFAEE
:10356000002002F037FAC72002F034FA002002F0FF
:1035700031FAD12002F02EFA002002F02BFAD520E9
:1035800002F028FA002002F025FADD2002F022FAEB
:10359000002002F01FFAF32002F01CFA002002F0D3
:1035A00019FAE42002F022FA012002F013FA0020B6
:1035B00002F010FA012002F00DFA002002F00AFADF
:1035C000022002F007FA002002F004FA2A2002F09A
:1035D00001FA002002F0FEF93C2002F0FBF9002085
:1035E00002F0F8F94B2002F0F5F9002002F0F2F9B0
:1035F0005D2002F0EFF9002002F0ECF9742002F0F7
:10360000E9F9002002F0E6F9842002F0E3F9002055
:1036100002F0E0F9932002F0DDF9002002F0DAF97F
:10362000A22002F0D7F9002002F0D4F9B32002F072
:10363000D1F9002002F0CEF9BE2002F0CBF9002033
:1036400002F0C8F9C42002F0C5F9002002F0C2F966
:10365000CD2002F0BFF9002002F0BCF9D32002F027
:10366000B9F9002002F0B6F9DD2002F0B3F900202C
:1036700002F0B0F9F32002F0ADF9002002F0AAF94F
:10368000E52002F0B3F9002002F0A4F9002002F0D6
:10369000A1F9002002F09EF9002002F09BF902201F
:1036A00002F098F9002002F095F9292002F092F931
:1036B000002002F08FF93C2002F08CF9002002F08B
:1036C00089F94B2002F086F9002002F083F95D2091
:1036D00002F080F9002002F07DF9742002F07AF9FE
:1036E000002002F077F9842002F074F9002002F043
:1036F00071F9932002F06EF9002002F06BF9A2201C
:1037000002F068F9002002F065F9B32002F062F9D6
:10371000002002F05FF9BE2002F05CF9002002F008
:1037200059F9C42002F056F9002002F053F9CD20D7
:1037300002F050F9002002F04DF9D32002F04AF9CE
:10374000002002F047F9DC2002F044F9002002F0EA
:1037500041F9F32002F03EF9002002F03BF9E620A7
:1037600002F044F9112002F035F9002002F032F99C
:10377000342002F02FF9002002F02CF9562002F03C
:1037800029F9002002F026F9762002F023F9002022
:1037900002F020F9772002F01DF9002002F01AF95A
:1037A000662002F017F9002002F014F9882002F0D8
:1037B00011F9002002F00EF9992002F00BF9002017
:1037C00002F008F9BB2002F005F9002002F002F92E
:1037D000992002F0FFF8002002F0FCF8662002F0C9
:1037E000F9F8002002F0F6F8552002F0F3F8002076
:1037F00002F0F0F8552002F0EDF8002002F0EAF8AF
:10380000452002F0E7F8002002F0E4F8432002F03F
:10381000E1F8002002F0DEF8442002F0DBF800209E
:1038200002F0D8F8E72002F0E1F8322002F0D2F8F6
:10383000002002F0CFF8552002F0CCF8002002F072
:10384000C9F8762002F0C6F8002002F0C3F866201E
:1038500002F0C0F8002002F0BDF8672002F0BAF8CC
:10386000002002F0B7F8672002F0B4F8002002F060
:10387000B1F8872002F0AEF8002002F0ABF89920F2
:1038800002F0A8F8002002F0A5F8BB2002F0A2F890
:10389000002002F09FF8992002F09CF8002002F02E
:1038A00099F8772002F096F8002002F093F844206F
:1038B00002F090F8002002F08DF8562002F08AF80D
:1038C000002002F087F8232002F084F8002002F0A4
:1038D00081F8332002F07EF8002002F07BF84520CA
:1038E00002F078F8002002F075F8E82002F07EF887
:1038F000002002F06FF8002002F06CF8992002F02E
:1039000069F8002002F066F8872002F063F80020D2
:1039100002F060F8882002F05DF8002002F05AF80A
:10392000772002F057F8002002F054F8662002F0E9
:1039300051F8002002F04EF8882002F04BF80020E9
:1039400002F048F8AA2002F045F8002002F042F800
:10395000BB2002F03FF8002002F03CF8992002F072
:1039600039F8002002F036F8662002F033F8002023
:1039700002F030F8552002F02DF8002002F02AF86D
:10398000552002F027F8002002F024F8442002F02D
:1039900021F8002002F01EF8442002F01BF800205D
:1039A00002F018F8552002F015F8002002F012F885
:1039B000E92002F01BF8AA2002F00CF8002002F027
:1039C00009F8002002F006F8002002F003F80020B9
:1039D00002F00CF8AA2001F0FDFFCF2002F006F85B
:1039E000002001F0F7FF002001F0F4FF002001F0BB
:1039F000F1FF002001F0EEFF002001F0EBFF0020BE
:103A000001F0E8FF002001F0E5FF002001F0E2FFF7
:103A1000002001F0DFFF002001F0DCFF002001F0BA
:103A2000D9FF002001F0D6FF002001F0D3FF0020D5
:103A300001F0D0FF002001F0CDFF002001F0CAFF0F
:103A4000002001F0C7FFF02001F0D0FF002001F0BE
:103A5000C1FF502001F0BEFF002001F0BBFF00209D
:103A600001F0B8FF002001F0B5FFF32001F0BEFF28
:103A7000002001F0AFFFF92001F0B8FF062001F0AF
:103A8000A9FF102001F0A6FF292001F0A3FF0020CC
:103A900001F0A0FF3A2001F0A9FF552001F09AFFA4
:103AA000112001F0A3FF6420FEF7E6FB292001F0BE
:103AB0009DFF352001F09AFF002001F08BFF51207F
:103AC00001F094FFFF2001F085FF532001F08EFFED
:103AD0002C2001F07FFF552001F088FF822001F0AB
:103AE00079FF2C2001F082FF10BD10B555214FF455
:103AF000704001F091FFAA214FF2010001F08CFF0C
:103B000052214FF2020001F087FF08214FF203001B
:103B100001F082FF01214FF2040001F07DFF34210A
:103B20004FF4364001F078FF34214BF2016001F090
:103B300073FF34214BF2026001F06EFF0D214FF450
:103B4000304001F069FF0D214BF2010001F064FFEC
:103B50000D214BF2020001F05FFF24214FF43740AA
:103B600001F05AFF24214BF2017001F055FF24218E
:103B70004BF2027001F050FF0D214FF4314001F083
:103B80004BFF0D214BF2011001F046FF0D214BF2CE
:103B9000021001F041FF24214FF4384001F03CFFB6
:103BA00024214BF6010001F037FF24214BF60200DF
:103BB00001F032FF00214FF4324001F02DFF2421AB
:103BC0004FF4394001F028FF24214BF6011001F099
:103BD00023FF24214BF6021001F01EFF05214FF4B4
:103BE000334001F019FF05214BF2013001F014FFC1
:103BF00005214BF2023001F00FFF34214FF43A401F
:103C000001F00AFF34214BF6012001F005FF3421B9
:103C10004BF6022001F000FF0B214FF4354001F07C
:103C2000FBFE0B214BF2015001F0F6FE0B214BF293
:103C3000025001F0F1FE00214FF43C4001F0ECFE97
:103C4000A3214BF6014001F0E7FE00214BF60240B4
:103C500001F0E2FE00214FF43D4001F0DDFEA32122
:103C60004BF6015001F0D8FE00214BF6025001F056
:103C7000D3FE00214FF43E4001F0CEFE37214BF63B
:103C8000016001F0C9FE00214FF4514001F0C4FE73
:103C900037214DF2011001F0BFFE00214DF202105C
:103CA00001F0BAFE53214DF2031001F0B5FE0021E0
:103CB0004DF2041001F0B0FE79214DF2051001F033
:103CC000ABFE00214DF2061001F0A6FE97214DF249
:103CD000071001F0A1FE00214DF2081001F09CFE3A
:103CE000B1214DF2091001F097FE00214DF20A10AA
:103CF00001F092FED5214DF20B1001F08DFE002156
:103D00004DF20C1001F088FEF4214DF20D1001F07F
:103D100083FE01214DF20E1001F07EFE23214DF2B3
:103D20000F1001F079FE01214DF2101001F074FE28
:103D300049214DF2111001F06FFE01214DF21210D8
:103D400001F06AFE87214DF2131001F065FE01219A
:103D50004DF2141001F060FEB6214DF2151001F085
:103D60005BFE02214DF2161001F056FE00214DF2CD
:103D7000171001F051FE02214DF2181001F04CFE17
:103D80003B214DF2191001F047FE02214DF21A10AD
:103D900001F042FE3D214DF21B1001F03DFE0221DB
:103DA0004DF21C1001F038FE75214DF21D1001F08E
:103DB00033FE02214DF21E1001F02EFEB1214DF214
:103DC0001F1001F029FE02214DF2201001F024FE07
:103DD000D5214DF2211001F01FFE03214DF22210DA
:103DE00001F01AFE09214DF2231001F015FE032106
:103DF0004DF2241001F010FE28214DF2251001F0A3
:103E00000BFE03214DF2261001F006FE52214DF269
:103E1000271001F001FE03214DF2281001F0FCFDF6
:103E20006B214DF2291001F0F7FD03214DF22A100C
:103E300001F0F2FD8D214DF22B1001F0EDFD03217B
:103E40004DF22C1001F0E8FDA2214DF22D1001F0F1
:103E5000E3FD03214DF22E1001F0DEFDBB214DF2FA
:103E60002F1001F0D9FD03214DF2301001F0D4FDE7
:103E7000C1214DF2311001F0CFFD03214DF232107E
:103E800001F0CAFDC1214DF2331001F0C5FD002142
:103E90004FF4524001F0C0FD37214DF2012001F0F6
:103EA000BBFD00214DF2022001F0B6FD53214DF281
:103EB000032001F0B1FD00214DF2042001F0ACFD22
:103EC00079214DF2052001F0A7FD00214DF20620D9
:103ED00001F0A2FD97214DF2072001F09DFD002188
:103EE0004DF2082001F098FDB1214DF2092001F0BA
:103EF00093FD00214DF20A2001F08EFDD5214DF2F7
:103F00000B2001F089FD00214DF20C2001F084FD11
:103F1000F4214DF20D2001F07FFD01214DF20E2024
:103F200001F07AFD23214DF20F2001F075FD0121F2
:103F30004DF2102001F070FD49214DF2112001F0E9
:103F40006BFD01214DF2122001F066FD87214DF23B
:103F5000132001F061FD01214DF2142001F05CFD00
:103F6000B6214DF2152001F057FD02214DF2162029
:103F700001F052FD00214DF2172001F04DFD02210C
:103F80004DF2182001F048FD3B214DF2192001F0BF
:103F900043FD02214DF21A2001F03EFD3D214DF27C
:103FA0001B2001F039FD02214DF21C2001F034FDEF
:103FB00075214DF21D2001F02FFD02214DF21E2032
:103FC00001F02AFDB1214DF21F2001F025FD022153
:103FD0004DF2202001F020FDD5214DF2212001F0ED
:103FE0001BFD03214DF2222001F016FD09214DF2A7
:103FF000232001F011FD03214DF2242001F00CFDDE
:1040000028214DF2252001F007FD03214DF2262045
:1040100001F002FD52214DF2272001F0FDFC0321A9
:104020004DF2282001F0F8FC6B214DF2292001F01F
:10403000F3FC03214DF22A2001F0EEFC8D214DF21C
:104040002B2001F0E9FC03214DF22C2001F0E4FCCF
:10405000A2214DF22D2001F0DFFC03214DF22E2094
:1040600001F0DAFCBB214DF22F2001F0D5FC032139
:104070004DF2302001F0D0FCC1214DF2312001F091
:10408000CBFC03214DF2322001F0C6FCC1214DF2E0
:10409000332001F0C1FC00214FF4534001F0BCFC7F
:1040A00037214DF2013001F0B7FC00214DF2023012
:1040B00001F0B2FC53214DF2033001F0ADFC0021C0
:1040C0004DF2043001F0A8FC79214DF2053001F0E9
:1040D000A3FC00214DF2063001F09EFC97214DF229
:1040E000073001F099FC00214DF2083001F094FCFA
:1040F000B1214DF2093001F08FFC00214DF20A3060
:1041000001F08AFCD5214DF20B3001F085FC002135
:104110004DF20C3001F080FCF4214DF20D3001F035
:104120007BFC01214DF20E3001F076FC23214DF293
:104130000F3001F071FC01214DF2103001F06CFCE8
:1041400049214DF2113001F067FC01214DF212308E
:1041500001F062FC87214DF2133001F05DFC01217A
:104160004DF2143001F058FCB6214DF2153001F03B
:1041700053FC02214DF2163001F04EFC00214DF2AD
:10418000173001F049FC02214DF2183001F044FCD7
:104190003B214DF2193001F03FFC02214DF21A3063
:1041A00001F03AFC3D214DF21B3001F035FC0221BB
:1041B0004DF21C3001F030FC75214DF21D3001F044
:1041C0002BFC02214DF21E3001F026FCB1214DF2F4
:1041D0001F3001F021FC02214DF2203001F01CFCC7
:1041E000D5214DF2213001F017FC03214DF2223090
:1041F00001F012FC09214DF2233001F00DFC0321E6
:104200004DF2243001F008FC28214DF2253001F058
:1042100003FC03214DF2263001F0FEFB52214DF24A
:10422000273001F0F9FB03214DF2283001F0F4FBB7
:104230006B214DF2293001F0EFFB03214DF22A30C2
:1042400001F0EAFB8D214DF22B3001F0E5FB03215B
:104250004DF22C3001F0E0FBA2214DF22D3001F0A7
:10426000DBFB03214DF22E3001F0D6FBBB214DF2DA
:104270002F3001F0D1FB03214DF2303001F0CCFBA7
:10428000C1214DF2313001F0C7FB03214DF2323034
:1042900001F0C2FBC1214DF2333001F0BDFB002122
:1042A0004FF4544001F0B8FB37214DF2014001F0CA
:1042B000B3FB00214DF2024001F0AEFB53214DF261
:1042C000034001F0A9FB00214DF2044001F0A4FBE2
:1042D00079214DF2054001F09FFB00214DF206408F
:1042E00001F09AFB97214DF2074001F095FB002168
:1042F0004DF2084001F090FBB1214DF2094001F070
:104300008BFB00214DF20A4001F086FBD5214DF2D6
:104310000B4001F081FB00214DF20C4001F07CFBD1
:10432000F4214DF20D4001F077FB01214DF20E40DA
:1043300001F072FB23214DF20F4001F06DFB0121D2
:104340004DF2104001F068FB49214DF2114001F09F
:1043500063FB01214DF2124001F05EFB87214DF21B
:10436000134001F059FB01214DF2144001F054FBC0
:10437000B6214DF2154001F04FFB02214DF21640DF
:1043800001F04AFB00214DF2174001F045FB0221EC
:104390004DF2184001F040FB3B214DF2194001F075
:1043A0003BFB02214DF21A4001F036FB3D214DF25C
:1043B0001B4001F031FB02214DF21C4001F02CFBAF
:1043C00075214DF21D4001F027FB02214DF21E40E8
:1043D00001F022FBB1214DF21F4001F01DFB022133
:1043E0004DF2204001F018FBD5214DF2214001F0A3
:1043F00013FB03214DF2224001F00EFB09214DF287
:10440000234001F009FB03214DF2244001F004FB9D
:1044100028214DF2254001F0FFFA03214DF22640FC
:1044200001F0FAFA52214DF2274001F0F5FA03218A
:104430004DF2284001F0F0FA6B214DF2294001F0D5
:10444000EBFA03214DF22A4001F0E6FA8D214DF2FC
:104450002B4001F0E1FA03214DF22C4001F0DCFA8F
:10446000A2214DF22D4001F0D7FA03214DF22E404A
:1044700001F0D2FABB214DF22F4001F0CDFA032119
:104480004DF2304001F0C8FAC1214DF2314001F047
:10449000C3FA03214DF2324001F0BEFAC1214DF2C0
:1044A000334001F0B9FA00214FF4554001F0B4FA5D
:1044B00037214DF2015001F0AFFA00214DF20250C8
:1044C00001F0AAFA53214DF2035001F0A5FA0021A0
:1044D0004DF2045001F0A0FA79214DF2055001F09F
:1044E0009BFA00214DF2065001F096FA97214DF209
:1044F000075001F091FA00214DF2085001F08CFABA
:10450000B1214DF2095001F087FA00214DF20A5015
:1045100001F082FAD5214DF20B5001F07DFA002115
:104520004DF20C5001F078FAF4214DF20D5001F0EB
:1045300073FA01214DF20E5001F06EFA23214DF273
:104540000F5001F069FA01214DF2105001F064FAA8
:1045500049214DF2115001F05FFA01214DF2125044
:1045600001F05AFA87214DF2135001F055FA01215A
:104570004DF2145001F050FAB6214DF2155001F0F1
:104580004BFA02214DF2165001F046FA00214DF28D
:10459000175001F041FA02214DF2185001F03CFA97
:1045A0003B214DF2195001F037FA02214DF21A5019
:1045B00001F032FA3D214DF21B5001F02DFA02219B
:1045C0004DF21C5001F028FA75214DF21D5001F0FA
:1045D00023FA02214DF21E5001F01EFAB1214DF2D4
:1045E0001F5001F019FA02214DF2205001F014FA87
:1045F000D5214DF2215001F00FFA03214DF2225046
:1046000001F00AFA09214DF2235001F005FA0321C5
:104610004DF2245001F000FA28214DF2255001F00E
:10462000FBF903214DF2265001F0F6F952214DF22B
:10463000275001F0F1F903214DF2285001F0ECF977
:104640006B214DF2295001F0E7F903214DF22A5078
:1046500001F0E2F98D214DF22B5001F0DDF903213B
:104660004DF22C5001F0D8F9A2214DF22D5001F05D
:10467000D3F903214DF22E5001F0CEF9BB214DF2BA
:104680002F5001F0C9F903214DF2305001F0C4F967
:10469000C1214DF2315001F0BFF903214DF23250EA
:1046A00001F0BAF9C1214DF2335001F0B5F9002102
:1046B0004FF4564001F0B0F937214DF2016001F09E
:1046C000ABF900214DF2026001F0A6F953214DF241
:1046D000036001F0A1F900214DF2046001F09CF9A2
:1046E00079214DF2056001F097F900214DF2066045
:1046F00001F092F997214DF2076001F08DF9002148
:104700004DF2086001F088F9B1214DF2096001F025
:1047100083F900214DF20A6001F07EF9D5214DF2B6
:104720000B6001F079F900214DF20C6001F074F991
:10473000F4214DF20D6001F06FF901214DF20E6090
:1047400001F06AF923214DF20F6001F065F90121B2
:104750004DF2106001F060F949214DF2116001F055
:104760005BF901214DF2126001F056F987214DF2FB
:10477000136001F051F901214DF2146001F04CF980
:10478000B6214DF2156001F047F902214DF2166095
:1047900001F042F900214DF2176001F03DF90221CC
:1047A0004DF2186001F038F93B214DF2196001F02B
:1047B00033F902214DF21A6001F02EF93D214DF23C
:1047C0001B6001F029F902214DF21C6001F024F96F
:1047D00075214DF21D6001F01FF902214DF21E609E
:1047E00001F01AF9B1214DF21F6001F015F9022113
:1047F0004DF2206001F010F9D5214DF2216001F059
:104800000BF903214DF2226001F006F909214DF266
:10481000236001F001F903214DF2246001F0FCF85E
:1048200028214DF2256001F0F7F803214DF22660B2
:1048300001F0F2F852214DF2276001F0EDF803216A
:104840004DF2286001F0E8F86B214DF2296001F08B
:10485000E3F803214DF22A6001F0DEF88D214DF2DC
:104860002B6001F0D9F803214DF22C6001F0D4F84F
:10487000A2214DF22D6001F0CFF803214DF22E6000
:1048800001F0CAF8BB214DF22F6001F0C5F80321F9
:104890004DF2306001F0C0F8C1214DF2316001F0FD
:1048A000BBF803214DF2326001F0B6F8C1214DF2A0
:1048B000336001F0B1F855214FF4704001F0ACF8CD
:1048C000AA214FF2010001F0A7F852214FF2020095
:1048D00001F0A2F808214FF2030001F09DF8002139
:1048E0004FF2040001F098F800214FF4304001F03D
:1048F00093F805214BF2010001F08EF802214BF2F2
:10490000020001F089F805214BF2030001F084F860
:1049100002214BF2040001F07FF808214FF43640E9
:1049200001F07AF850214FF4354001F075F8052177
:104930004FF4364001F070F800214FF4374001F099
:104940006BF800214BF2017001F066F801214FF481
:10495000384001F061F805214BF6010001F05CF8E8
:1049600005214BF6020001F057F805214BF6030034
:1049700001F052F802214FF43C4001F04DF80021C3
:104980004BF6014001F048F800214BF6024001F0DF
:1049900043F803214FF44C4001F03EF800214CF65F
:1049A000014001F039F800214CF6024001F034F8E2
:1049B00001214FF43D4001F02FF884214BF60150C6
:1049C00001F02AF807214BF6025001F025F83121B9
:1049D0004BF6035001F020F800214BF6045001F093
:1049E0001BF801214FF43A4001F016F8AA214FF4C8
:1049F0007F4001F011F855214FF6017001F00CF8DD
:104A000025214FF6027001F007F801214FF60370DF
:104A100001F002F840214FF4585000F0FDFF002152
:104A20004FF4545000F0F8FF05214FF4685000F0A7
:104A3000F3FF4FF4885000F0D9FF7820FDF71CFCFD
:104A40004FF4245000F0D2FF0A20FDF715FC4FF47C
:104A5000305000F0CBFF10BD10B5E22000F0C6FFD3
:104A60001D2000F0B7FF022000F0B4FF042000F08A
:104A7000B1FF6420FDF70CFCE02000F0B7FF01203F
:104A800000F0A8FF0A20FDF7F7FBE02000F0AEFFE2
:104A9000032000F09FFF0C20FDF7EEFB012000F04B
:104AA000A5FF0A20FDF7E8FBE62000F09FFF2F207E
:104AB00000F090FFFF2000F08DFFFF2000F08AFF44
:104AC000B02000F093FF202000F084FF002000F0D1
:104AD00081FF032000F07EFF40F21F3000F07AFFDC
:104AE000012000F077FF40F2DF1000F073FF00209C
:104AF00000F070FFB42000F079FF042000F06AFF9E
:104B000040F21F4000F066FF002000F063FF2E20FF
:104B100000F060FF002000F05DFF002000F05AFF71
:104B2000002000F057FF002000F054FFB62000F0F6
:104B30005DFF022000F04EFF4FF4037000F04AFFCB
:104B4000002000F047FF172000F044FF152000F080
:104B500041FF002000F03EFF002000F03BFFF0206E
:104B600000F044FF032000F035FF292000F03EFF55
:104B7000D02000F03BFF002000F02CFFBE2000F012
:104B800035FF052000F026FFFE2000F023FF012066
:104B900000F020FF002000F01DFF002000F01AFFB1
:104BA000002000F017FFB82000F020FF032000F0E5
:104BB00011FF012000F00EFFBA2000F017FF0120C6
:104BC00000F008FF10BD10B5112000F00FFF782095
:104BD000FDF752FB362000F009FF002000F0FAFE3E
:104BE0003A2000F003FF052000F0F4FEB22000F0B0
:104BF000FDFE0C2000F0EEFE0C2000F0EBFE00208D
:104C000000F0E8FE332000F0E5FE332000F0E2FE85
:104C1000B72000F0EBFE352000F0DCFEBB2000F0FA
:104C2000E5FE322000F0D6FEC02000F0DFFE0C20B2
:104C300000F0D0FEC22000F0D9FE012000F0CAFE34
:104C4000C32000F0D3FE102000F0C4FEC42000F00A
:104C5000CDFE202000F0BEFEC62000F0C7FE0F20D3
:104C600000F0B8FED02000F0C1FEA42000F0B2FE9B
:104C7000A12000F0AFFEE02000F0B8FED02000F050
:104C8000A9FE002000F0A6FE022000F0A3FE0720EF
:104C900000F0A0FE0A2000F09DFE282000F09AFE01
:104CA000322000F097FE442000F094FE422000F0F5
:104CB00091FE062000F08EFE0E2000F08BFE1220EA
:104CC00000F088FE142000F085FE172000F082FE20
:104CD000E12000F08BFED02000F07CFE002000F0F0
:104CE00079FE022000F076FE072000F073FE0A2015
:104CF00000F070FE282000F06DFE312000F06AFE0A
:104D0000542000F067FE472000F064FE0E2000F003
:104D100061FE1C2000F05EFE172000F05BFE1B20F1
:104D200000F058FE1E2000F055FE2A2000F05EFE26
:104D3000002000F04FFE002000F04CFE002000F0AC
:104D400049FEEF2000F046FE2B2000F04FFE002031
:104D500000F040FE002000F03DFE012000F03AFE91
:104D60003F2000F037FE292000F040FE10BD10B5B6
:104D7000112000F03BFE7820FDF77EFA362000F08F
:104D800035FE482000F026FE3A2000F02FFE552088
:104D900000F020FEF02000F029FEC32000F01AFEF3
:104DA000F02000F023FE962000F014FEB42000F066
:104DB0001DFE012000F00EFEB62000F017FE0A20B6
:104DC00000F008FEA22000F005FEB72000F00EFE65
:104DD000C62000F0FFFDB92000F008FE022000F020
:104DE000F9FDE02000F0F6FDC02000F0FFFD80207E
:104DF00000F0F0FD162000F0EDFDC12000F0F6FD02
:104E0000192000F0E7FDC22000F0F0FDA72000F01F
:104E1000E1FDC52000F0EAFD162000F0DBFDE820F2
:104E200000F0E4FD402000F0D5FD8A2000F0D2FD26
:104E3000002000F0CFFD002000F0CCFD292000F084
:104E4000C9FD192000F0C6FDA52000F0C3FD3320E8
:104E500000F0C0FDE02000F0C9FDF02000F0BAFD38
:104E6000072000F0B7FD0D2000F0B4FD042000F095
:104E7000B1FD052000F0AEFD142000F0ABFD3620A2
:104E800000F0A8FD542000F0A5FD4C2000F0A2FD8C
:104E9000382000F09FFD132000F09CFD142000F04E
:104EA00099FD2E2000F096FD342000F093FDE120C6
:104EB00000F09CFDF02000F08DFD102000F08AFD38
:104EC000142000F087FD0E2000F084FD0C2000F07F
:104ED00081FD082000F07EFD352000F07BFD4420A0
:104EE00000F078FD4C2000F075FD262000F072FDEA
:104EF000102000F06FFD122000F06CFD2C2000F05F
:104F000069FD322000F066FDF02000F06FFD3C20CE
:104F100000F060FDF02000F069FD692000F05AFD0E
:104F20007820FDF7A9F9212000F060FD292000F08C
:104F30005DFD10BD00B595B000BF00BF0020019021
:104F4000FA48006840F04000F849086008460068E8
:104F500000F04000019000BF00BF00BF00BF00BFD5
:104F6000002001900846006840F0080008600846EC
:104F7000006800F00800019000BF00BF00BF00BF44
:104F800000BF002001900846006840F0080008605B
:104F90000846006800F00800019000BF00BF00BF95
:104FA00000BF00BF002001900846006840F02000CC
:104FB00008600846006800F02000019000BF00BFB4
:104FC00000BF00BF00BF002001900846006840F00D
:104FD000020008600846006800F00200019000BF6F
:104FE00000BF00BF88141090022011900120129081
:104FF000022013900C20149010A9CD48FBF76AFEF4
:105000002020109010A9CB48FBF764FE10201090D0
:1050100010A9C848FBF75EFE4FF48050109010A90D
:10502000C548FBF757FE4FF4004010900120119047
:1050300010A9C248FBF74EFE4FF02040C04908605F
:10504000C0484860062088600021BD48C16010212A
:10505000416100218161C16141624FF480518162EF
:105060000021C1624FF480410163002141638163EB
:105070000F20099000200A903C200B9000200F90F8
:10508000092002900020039009200490002008903D
:1050900002AA09A9AA48FCF77FFB3220FDF7ECF829
:1050A000D32000F0A3FC00F0D5F9A749888000F0D8
:1050B000D1F9A549888000F0CDF9A3498880084638
:1050C00080884FF6FF7101EA00209F49888000F038
:1050D000C1F99D49898808439B4988800846808892
:1050E00049F2413188427CD0042000F07FFC00F07E
:1050F000B1F99549888000F0ADF99349888000F0B6
:10510000A9F991498880084680884FF6FF7101EA25
:1051100000208D49888000F09DF98B4989880843DB
:10512000894988800846808848F25251884203D1D4
:1051300047F28970844988808348808847F2897162
:105140008842D0D0D42000F051FC00F083F97E4991
:10515000888000F07FF97C49888000F07BF97A49EB
:105160008880084680884FF6FF7101EA0020764962
:10517000888000F06FF974498988084372498880F3
:105180000846808845F210318842ACD0D32000F028
:105190002DFC00F05FF96C49888000F05BF96A49EA
:1051A000888000F057F968498880084680884FF663
:1051B000FF7101EA00206449888000F04BF96249E0
:1051C00089880843604988800846808847F296713C
:1051D000884288D055214FF4704000F01DFCAA2170
:1051E00000E07EE04FF2010000F016FC52214FF289
:1051F000020000F011FC08214FF2030000F00CFC4B
:1052000001214FF2040000F007FC4FF4454000F08C
:10521000EDFB00F01FF94C498880084680884FF666
:10522000FF7101EA0020484988804CF2015000F0EB
:10523000DDFB00F00FF94449898808434249888022
:105240000520FDF719F84048808845F21051884242
:1052500047D0D32000F0CAFB00F0FCF83A49888020
:1052600000F0F8F83849888000F0F4F83649888072
:10527000084680884FF6FF7101EA00203249888095
:1052800000F0E8F83049898808432F4988800846AB
:10529000808849F60601884223D0A12000F0A6FBB1
:1052A00000F0D8F82849888000F0D4F82649888092
:1052B000084680884FF6FF7101EA00202249888065
:1052C00000F0C8F82049898808431F4988800846AB
:1052D000808845F26171884203D141F663101A4912
:1052E00088801948808847F28971884202D1FFF787
:1052F0006AFC48E01448808849F24131884202D172
:10530000FDF7C4F93FE01048808845F2103188422B
:1053100002D1FDF771FC36E00B48808847F29671A8
:10532000884213D1FFF723FD2DE000003038024002
:1053300000180240000C0240001402400004024029
:10534000B8010020040100A0080200203B4880882A
:1053500045F21051884202D1FEF7C7FB13E03748EF
:10536000808849F60601884202D1FDF7A5FA0AE0D5
:105370003248808841F66311884204D1FFF76CFB04
:10538000642000F0F7FA2D48808847F2897188423E
:105390000AD103200290049029490B6B8A6848685F
:1053A00002A9FBF791FB38E02448808849F6060102
:1053B00088420BD02148808849F24131884205D08B
:1053C0001E48808845F2105188420AD1022002907E
:1053D00004901B490B6B8A68486802A9FBF774FBB1
:1053E0001BE01648808845F2103188420BD01348E4
:1053F000808847F29671884205D01048808841F62F
:105400006311884209D10120029004900C490B6B72
:105410008A68486802A9FBF757FB0020FDF770F87F
:1054200000BF0122D1030748FBF768FD00BF4FF61C
:10543000FF70FDF74BF815B000BD0000080200201A
:10544000B80100200004024000BF011EA0F10100CD
:10545000FBD1704708B50220FFF7F6FF024800882D
:105460000090BDF8000008BD8000006CF0B5054656
:10547000002400278B488079012805D1894880883D
:1054800041F66311884208D186488079F0B9854891
:10549000808841F66311884218D1082D15D2DFE8C3
:1054A00005F00406080A0C0E101206250DE007256B
:1054B0000BE0042509E0052507E0012505E00025AE
:1054C00003E0032501E0022500BF00BF082D1CD228
:1054D000DFE805F00406090C0F12151800BF14E0F0
:1054E00044F0800411E044F040040EE044F0C004B5
:1054F0000BE044F0200408E044F0600405E044F0D0
:10550000A00402E044F0E00400BF00BF3627654875
:10551000808845F21051884200D13F02614880885E
:1055200049F2413188420BD05E48808847F2897148
:10553000884205D05B48808847F29671884201D145
:1055400044F008042146384600F066FA5548808841
:1055500041F6631188421DD004F0200068B1514823
:10556000008850494988884214DA4E4806884088A5
:105570004C490880084646800CE04A480088494962
:105580004988884206DD47480688408845490880A2
:10559000084646804348808845F21051884252D1DF
:1055A0004049488900F022FA002000F013FA3D49F2
:1055B0004989491C88B200F019FA002000F00AFA63
:1055C00038494989891C88B200F010FA35490988A0
:1055D000491EC1F30F2000F0FDF932494989C91C69
:1055E00088B200F003FA2F490978491EC8B200F0CA
:1055F000F1F92C49888900F0F9F9002000F0EAF966
:1056000028498989491C88B200F0F0F9002000F08F
:10561000E1F924498989891C88B200F0E7F9214918
:105620004988491EC1F30F2000F0D4F91D4989892A
:10563000C91C88B200F0DAF91A498978491EC8B243
:1056400000F0C8F92DE01749488900F0CFF9002093
:1056500000F0C0F9002000F0BDF912490988491E88
:10566000C1F30F2000F0B6F90E490978491EC8B2FF
:1056700000F0B0F90B49888900F0B8F9002000F07B
:10568000A9F9002000F0A6F906494988491EC1F38E
:105690000F2000F09FF903498978491EC8B200F035
:1056A00099F9F0BD0802002010B502460C464548A5
:1056B000808841F66311884247D142488079A8B971
:1056C00040480088401E801A82B23E49488900F056
:1056D0008DF9002000F07EF9002000F07BF9101217
:1056E00000F078F9D0B200F075F916E03549488934
:1056F00000F07CF9101200F06DF9D0B200F06AF9F8
:1057000030490988491EC1F30F2000F063F92D4983
:105710000978491EC8B200F05DF92A49888900F06D
:1057200065F9201200F056F9E0B200F053F925496E
:105730004988491EC1F30F2000F04CF921498978AE
:10574000491EC8B200F046F93AE01E48808845F28A
:105750001051884220D11B49488900F047F91012A6
:1057600000F038F917494989491C88B200F03EF920
:10577000D0B200F02FF91349888900F037F92012D0
:1057800000F028F90F498989491C88B200F02EF9E8
:10579000E0B200F01FF913E00A49488900F026F949
:1057A000101200F017F9D0B200F014F905498889F9
:1057B00000F01CF9201200F00DF9E0B200F00AF937
:1057C00010BD0000080200202DE9FC4F80460E4667
:1057D00015461C46B3460020019000902046E31772
:1057E00004EB5373DB1021464FEAE47C04EB5C7C52
:1057F0004FEAEC0CA4EBCC0CBCF1000F02D04FF044
:10580000010C01E04FF0000C6344224604EBD27C13
:105810004FEA6C0C03FB0CF3DBB20193A5F1200003
:10582000C5B20C2C06D0102C0BD0182C0ED0202C6E
:1058300018D112E005EB45002D4901EB80000090E6
:1058400012E02C4800EB051000900DE005EBC500C0
:10585000294901EB8000009006E0284800EB851004
:10586000009001E0BDE8FC8F00BF00273AE00098FF
:1058700010F807904FF0000A2EE009F0800028B1E0
:10588000314640460C9AFCF7F1FE07E00B9828B928
:105890001B48314602684046FCF7E8FE4FEA496083
:1058A0004FEA1069701C86B216484088B04200DC8E
:1058B000D8E7A6EB0B00A0420AD15E4608F1010032
:1058C0001FFA80F80F480088404500DCCAE706E070
:1058D0000AF1010000F0FF0ABAF1080FCDDB00BFAA
:1058E000781CC7B201988742C1DB00BFBAE700004D
:1058F0009E84000812890008028F00085E9C000840
:1059000034000020080200202DE9FC4F04460D461B
:1059100090469946DDE90C7A0B9E04F0FF0B08EBEC
:1059200004001FFA80F809EB05001FFA80F917E060
:10593000444502DB5C46A81985B24D4500DB15E005
:105940000020CDE9000A3A78334629462046FFF781
:105950003BFF304606EBD07104EB61018CB27F1C3B
:1059600038787E2802DC38782028E1DA00BFBDE8EC
:10597000FC8F000070B52DED048B0446BE2000F0B6
:1059800035F8052000F026F8204602F066FC41ECD0
:10599000190B9FED0E0B53EC102B02F071FC41EC38
:1059A000180B02F02DFC85B2284600F013F80120F8
:1059B00000F010F8FF2000F00DF8002000F00AF8C9
:1059C000002000F007F8BDEC048B70BD66666666CB
:1059D0006666044001B5BDF800000090BDF8000007
:1059E0000149088008BD00008000006C01B5BDF8C9
:1059F00000000090BDF800000149088008BD0000CB
:105A00007E00006C0248008902490880704700004F
:105A1000080200207E00006C034A10804FF0D8423C
:105A2000A2F88010704700007E00006C00B587B0BF
:105A300000BF00BF002001902048006840F0200017
:105A40001E4908600846006800F02000019000BF71
:105A500000BF00BF00BF00BF0020019008460068E3
:105A600040F0200008600846006800F02000019027
:105A700000BF00BF00BF48150290012003900490B2
:105A80000220059002A90E48FBF724F94FF480602C
:105A9000029002A90A48FBF71DF900BF012251023A
:105AA0000748FBF72BFA00BF00BF01229102044810
:105AB000FBF724FA00BF07B000BD000030380240F9
:105AC0000014024010B5FBF737FA07230222082121
:105AD0004FF4A87000F0E6FEA820FCF7B1FB4FF4ED
